:100000000010002099020000C91A0000C91A00005F
:10001000C91A0000C91A0000C91A0000C91A000054
:10002000C91A0000C91A0000C91A0000C91A000044
:10003000C91A0000C91A0000C91A0000C91A000034
:10004000C91A0000C91A0000C91A0000C91A000024
:10005000C91A0000C91A0000C91A0000C91A000014
:10006000C91A0000C91A0000C91A0000C91A000004
:10007000C91A0000C91A0000C91A0000C91A0000F4
:10008000C91A0000C91A0000C91A0000C91A0000E4
:10009000C91A0000C91A0000C91A0000C91A0000D4
:1000A000C91A0000C91A0000C91A0000C91A0000C4
:1000B000C91A0000C91A000085160000C91A0000FC
:1000C000C91A0000C91A0000C91A0000C91A0000A4
:1000D000C91A0000C91A0000C91A00000348044BDD
:1000E000834202D0034B03B1184770471810002019
:1000F00018100020000000000548064B1B1AD90FFD
:1001000001EBA301491002D0034B03B1184770471C
:1001100018100020181000200000000010B5064C38
:10012000237843B9FFF7DAFF044B13B10448AFF368
:1001300000800123237010BD6A1000200000000021
:10014000A81E000008B5054B1BB105490548AFF3D3
:100150000080BDE80840FFF7CFBF00BF00000000EF
:1001600018100020A81E0000A3F5803A704700BFB9
:10017000174B002B08BF134B9D46FFF7F5FF0021DF
:100180008B460F461348144A121A01F002FD0E4B1B
:10019000002B00D098470D4B002B00D09847002033
:1001A000002104000D000D48002802D00C48AFF3D8
:1001B000008001F05BFC2000290001F0E0FC01F070
:1001C00043FC00BF00000800000000000000000029
:1001D0000010002018100020701000200000000007
:1001E0000000000010B500F01FFE01210F4800F0D4
:1001F0003DFC01221146104600F0EAFD01220C4CA4
:100200001046A36A114623F4803323F0030343F01E
:100210000103A36200F0DCFDA36A002023F4801335
:1002200023F00C0343F00403A36210BDD0433E004F
:1002300000800C4013B50122124B1A6400F00AFF33
:10024000044601A800F0DEFE0F2C12D99DF8043000
:10025000022B0ED99DF80520022A01D1042B08D0CB
:10026000094AD2F8C03023F0500343F01003C2F81B
:10027000C03000F00FFFFFF7B5FF02B0BDE810403F
:1002800000F0F8BE00000C4000800C40014801F076
:1002900024BC00BF001C000008B500F0A5F8124BFC
:1002A00012498B4212D30020114B12498B4218D3B2
:1002B000FFF75EFF186850F82240586840F8224067
:1002C000013298688242F5D30C33EAE70022F8E75E
:1002D0001C6844F8220001325C68A242F8D308335B
:1002E000E4E70022F8E700BFB01E0000BC1E0000DB
:1002F000BC1E0000BC1E000000487047006CDC0201
:10030000254AD36A03F47053B3F5805F3AD0B3F54E
:10031000005F04D0B3F5006F0BD1204B00E0204B01
:100320001B681D4A1068C0F382300130B3FBF0F047
:100330007047D36803F4E063B3F5407F25D008D855
:10034000B3F5807F0ED0B3F5007F20D0A3B100239A
:10035000E7E7B3F5806F1CD0B3F5A06F114B18BF62
:100360000023DEE7104B114AD3F8FC10104BB1F11B
:10037000985F28BF1346D4E70B4B0E4AD3F8FC1006
:100380000D4BF4E74FF40043CBE70C4BC9E70C4BA4
:10039000C7E70C4BC5E700BF00800C4008100020E9
:1003A00004100020003FAB010081E00F40B5640065
:1003B000C0CF6A00804F120040420F00809FD500DE
:1003C000C0D8A700406F400108B5FFF799FF044B64
:1003D0005B6803F00F03D840024B186008BD00BFF4
:1003E00000800C4000100020014A024B9A607047C8
:1003F0000000000000ED00E0014B1868704700BFEE
:100400000410002038B5052804460D4605D80A4BCF
:1004100033F81030CB40DB0704D440F2FE310748FC
:1004200001F059FB24220123544304F18044AB40E2
:1004300004F5C044636138BD6C1C0000181C00004A
:1004400038B5052804460D4605D80A4B33F8103058
:10045000CB40DB0704D440F22D41074801F03BFBC1
:1004600024220123544304F18044AB4004F5C044EA
:10047000236138BD6C1C0000181C000010B5044638
:100480000121094800F0F2FA0121084800F0EEFAD3
:10049000A3782078B3FA83F3042261785B0900F033
:1004A00035FD002010BD00BF4081040000D20400D3
:1004B00038B504784578052C05D80A4B33F8143044
:1004C000EB40DB0704D44FF48961074801F003FBDC
:1004D00024220123544304F18044AB4004F5C0447A
:1004E000A36138BD6C1C0000181C000070B50678B4
:1004F0000546052E447805D80C4B33F81630E340FA
:10050000DB0704D44FF48361094801F0E4FA2423A3
:100510005E43084B334404EBC304A4002068AB786B
:10052000C0B213B9B0FA80F0400970BD6C1C000075
:10053000181C00000C60100210B5431EB3F5004FEC
:10054000044604D2B4FA84F0C0F11F0010BD40F696
:100550009351034801F0BFFA002CF3D12020F3E7B8
:10056000781C000008B5194B5B6903F4E063B3F530
:10057000407F16D00DD8B3F5807F20D0B3F5007F33
:1005800018D0F3B141F29C61114801F0A4FA0023A4
:100590000EE0B3F5C06F16D0B3F5E06FF2D10D4B9E
:1005A00006E000F057FD0C4B0C4A122888BF13469A
:1005B000184608BD00F04EFD094B0A4AF5E70A4B04
:1005C000F6E70A4BF4E70A4BF2E700BF00800C4065
:1005D000CA1C0000406F400140420F00804F1200D3
:1005E000C0CF6A0040B56400C0D8A700809FD50086
:1005F000003FAB01034B5A6DD20702D41A6D104273
:10060000FCD1704700800C4008B500F02BFD4A2853
:1006100005D0792803D0482818D1104815E0104992
:100620000E48D1F8E030D1F8E820D1F8EC101B02E8
:1006300003F47C53C1F3031102F0F0020B431343A4
:10064000084AB3F5017F28BF104608BD064841F2AD
:10065000186101F040FA0020F7E700BF0048E80108
:1006600000FF0FE000366E01CA1C000010B5044602
:10067000FFF7CAFFA04207D2FFF7C6FFB4EB400F57
:100680000ED80122012301E00022134605498B67A1
:1006900005494B6823F4807343EA02234B6010BD85
:1006A0000222EFE70000904300800C40144B5A6890
:1006B0006FF0130302F00702134113F0010F114B07
:1006C00009D1984217D8104B104A034493422CBFCB
:1006D0000023012308E098420FD80B4B0B4A034438
:1006E000934234BF0323022305494A6822F00702DC
:1006F00013434B6070470423F6E70523F4E700BF7C
:1007000000000C400048E801FFDB0BFF0024F40070
:1007100038B541F67133064CE56BE363FFF7ECFD4A
:10072000ADB2FFF7C3FF0DB10023E36338BD00BFD7
:1007300000000C4038B541F67133054CE56BE363BE
:10074000ADB2FFF7B3FF0DB10023E36338BD00BFC7
:1007500000000C4008B5C0F30313013B0C2B5AD822
:10076000DFE803F00759590D5959141D47595959D4
:1007700017002A4B1868C0F38230013008BD274BA0
:100780009B6803F00F0301209840F7E7234B5B6859
:10079000F7E7224B5B68C3F300230133F3E7204BF9
:1007A000984220D00DD81F4B984212D003F58223D7
:1007B000984213D041F62F411B4801F08CF90120DB
:1007C000DCE71A4B9842F5D1144B9B6E03F0030300
:1007D000D9E7124B9B6EC3F30313D4E70F4B9B6E09
:1007E000C3F30323CFE70D4B9B6EC3F301330433F5
:1007F000C9E70F4B984206D003F50433984205D061
:1008000041F64841D8E7054B1B6FDFE7034B1B6FF1
:10081000C3F30113B7E741F64F41CDE700800C4029
:1008200080002A0080161200CA1C000080062E00DC
:1008300090071A0010B5C0F30313013B0C460C2BB4
:1008400000F20581DFE813F00D000301030125002C
:100850000301030144006700D10003010301030108
:1008600038004C1E072C04D941F67C41794801F030
:1008700032F9FFF74DFF784A136823F4E03343EA77
:1008800084341460FFF7A0FDBDE810400021FFF79D
:1008900051BF4B1EB3F5007F04D341F68F416D4825
:1008A00001F019F92046FFF747FE6B4A936823F0E1
:1008B0000F030343936010BD0846FFF73DFE664AF1
:1008C0000138536823F4807343EA00235360F2E74E
:1008D0004B1EB3F5007F04D341F6A5415D4801F0FE
:1008E000FAF8FFF715FFFFF76FFDB0FBF4F0FFF725
:1008F000BDFE2046FFF720FE574A536823F00F0342
:1009000003435360FFF760FD0021FFF713FFBDE8CD
:100910001040FFF7ABBE514B98424FD00DD8504B13
:10092000984220D003F58223984232D041F6FE410E
:10093000BDE81040474801F0CEB84A4B9842F5D187
:10094000082904D941F6F041424801F0C4F80420D6
:10095000FFF750FE2046FFF7EFFD3F4A936E23F06E
:100960000303034313E0B1F5004F04D941F6C3413B
:10097000384801F0B0F80420FFF73CFE2046FFF7AE
:10098000DBFD354A936E23F0F00343EA00139366D0
:1009900091E7B1F5004F04D941F6D1412D4801F05E
:1009A0009AF80420FFF726FE2046FFF7C5FD2A4AE5
:1009B000936E23F4706343EA0023E8E7A1F1100388
:1009C000702B04D94FF4E751224801F084F8042039
:1009D000FFF710FE2046FFF7AFFD1F4A0438936E65
:1009E00023F4405343EA0033D1E71F4B984206D02B
:1009F00003F50433984216D041F6245198E70829AC
:100A000004D941F60751134801F065F84020FFF77B
:100A1000F1FD2046FFF790FD0F4A136F23F003030B
:100A20000343136747E7082904D941F616510948DB
:100A300001F051F84020FFF7DDFD2046FFF77CFD77
:100A4000054A136F23F0300343EA0013E9E741F648
:100A50002A516DE7CA1C000000800C4080002A006B
:100A60008016120080062E0090071A0070B5C0F3A1
:100A70000323013B04460E46092B16D8DFE803F09A
:100A8000302C051515272015151CFFF79DFCFFF7C9
:100A9000EDFD154DC4F3043405F1424505F580150F
:100AA00004EBC504A400266070BD41F6B051BDE85A
:100AB00070400E4801F00FB80D4DC0F30434EBE761
:100AC000C0F3043410200B4DFFF794FDE4E7C0F3AE
:100AD0000434094D0120F7E7084DC0F30434DBE787
:100AE000074DC0F30434D7E740800C40CA1C000017
:100AF00078800C4060800C4058800C4044800C4052
:100B000008800C4008B500F00F00013805283BD8DC
:100B1000DFE800F00313243A3A32224BDB6A03F495
:100B20007053B3F5805F3AD0B3F5005F33D0B3F5BF
:100B3000006F0CBF0420052008BD1A4B986A00F016
:100B400003000228F8D0032827D0012827D09B6A69
:100B500013F4803F0CBF01200A20EDE7114A936A8D
:100B600003F00C03082B16D00C2B16D0042B16D038
:100B7000936A13F4801FEDE70A4B1B6813F0805F44
:100B80000CBF07200920D7E7074842F2013100F0E7
:100B9000A2FF0020D0E70220CEE70620CCE703200A
:100BA000CAE700BF00800C40CA1C000010B52B4BE8
:100BB0000446984223D02A4B984213D041F6131191
:100BC000284800F088FF2046FFF79CFF044641F6C6
:100BD0004211244800F07FFF032C37D8DFE804F0EF
:100BE0003B1C2024FFF78EFF1F4A936AC3F3810347
:100BF000013B022B27D8DFE803F00F131700FFF7A4
:100C000081FF194A936A03F00303013B022B12D8B8
:100C1000DFE803F002060A00BDE8104000F055BF0F
:100C2000BDE81040FFF7E8BBFFF7CEFB0F4B9B6F13
:100C30000133D84010BD936A1022D3400BD0BDE8D9
:100C4000104000F045BF936A1422F6E741F66D119B
:100C5000044800F040FF0020ECE700BF02001E0047
:100C600003002000CA1C000000800C4000009043DC
:100C700038B500F47813B3F5D01F05467DD01BD8E6
:100C8000B3F5602F7FD00AD8B3F5003F49D0B3F554
:100C9000802F3ED0002B7DD04FF4F75180E0B3F58C
:100CA000901F47D0B3F5B01F4CD0B3F5801FF3D1E0
:100CB000BDE83840FFF756BCB3F5281F4AD010D81E
:100CC000B3F5F01F31D0B3F5001F54D0B3F5E01FDA
:100CD000E2D13A48FFF76AFF394B1B6FC3F30113A8
:100CE0001DE0B3F5381F3ED0B3F5781F5DD0B3F5E6
:100CF000301FD1D13348FFF759FF314A936EC3F308
:100D00000133D840D36F03F007030133B0FBF3F096
:100D100038BDFFF7F5FA2A4B9B6803F00F03D84064
:100D2000F6E7BDE83840FFF74FBB2648BDE838403E
:100D3000FFF73CBF2348FFF739FF214B9B6EC3F3FE
:100D40000313ECE71F48FFF731FF1D4B9B6EC3F306
:100D50000323E4E71B48FFF729FF194B9B6EC3F3FE
:100D600001330433DBE71748FFF720FF144B9B6E7A
:100D700003F00303D3E71148D8E71048FFF716FF45
:100D80000F4B1B6FF4E71048FFF7BCFE07288FD00E
:100D9000092803D1BDE83840FFF7B2BA41F2D66165
:100DA0000A4800F098FE0020B2E7FFF70DFB04466A
:100DB0002846FFF7CFFCB4FBF0F0A9E703002000C2
:100DC00000800C4002001E0006000E00CA1C00003D
:100DD00030B404280BD80E4B1C5C0E4B33F810506B
:100DE0000D4B33F810000D4B39B918620DE042F687
:100DF000F93130BC0A4800F06EBE1D622AB1094BC1
:100E000023449B001A68002AFCD030BC704700BF06
:100E1000301D0000261D00001C1D000000800C403D
:100E2000CA1C00006001E41008B5FFF7EDFB0130BB
:100E3000FFF71CFC012203201146FFF7C9FFFFF753
:100E400067FC0122064B5A62FFF7BEFAFFF70EFC61
:100E5000FFF7BAFABDE808400021FFF76BBC00BFFE
:100E600000800C4010B50479837809492343047845
:100E7000CA6A43EA0443C478407822F4803243EAE1
:100E8000440322F01F0243EA00131343CB6210BD58
:100E900000600C4038B5052804460D4605D80A4BBD
:100EA00033F81030CB40DB0704D440F22D41074823
:100EB00000F011FE24220123544304F18044AB408E
:100EC00004F5C044236138BD881D0000181C0000D3
:100ED00038B5052804460D4605D80A4B33F81030BE
:100EE000CB40DB0704D440F2FE31074800F0F3FDAD
:100EF00024220123544304F18044AB4004F5C04450
:100F0000636138BD881D0000181C0000F8B5052875
:100F100005460C4616461F4605D81C4B33F81030C4
:100F2000CB40DB0704D44FF4B071194800F0D3FD77
:100F300026B121462846C7B1FFF7ACFF2423072C72
:100F40004FF00F0105FB03F312D8A00006FA00F2E0
:100F500081401048184400F0E7FDAEB9214628460C
:100F600077B1BDE8F840FFF795BFFFF7B1FFE5E7C0
:100F7000A4F10800800006FA00F281400648E9E783
:100F8000BDE8F840FFF7A4BFF8BD00BF881D000012
:100F9000351D0000046000400860004038B501289D
:100FA00005460C460CD9A4210C4800F094FDB4F180
:100FB000807F12D3BDE83840A921084800F08BBDDE
:100FC000B1F1807F03D3A921044800F084FD044BD4
:100FD000044A012D18BF13461C6038BD941D000043
:100FE0000C00084008000840427803780AB143F03A
:100FF000020382780AB143F00403014A1360704788
:101000000000084010B5044618B957210F4800F0F9
:1010100062FD0F4AD2F8E430D2F8E0109B0003F0F2
:101020003C03C1F381110B43A370D2F8E03003F00D
:101030003F036370D2F8E830D2F8EC2003F0F003FD
:10104000C2F303121343237010BD00BFE51D00005F
:1010500000FF0FE0024BD3F8FC00000E704700BF0A
:101060000081E00F024BD3F8FC00C0F3074070474B
:101070000081E00F07B5064B18681B7900906846A1
:101080008DF80430FFF7EEFE002003B05DF804FB9E
:10109000391E000010B56FF00403A0210A480B4C64
:1010A00013F0800F03F1010207D12344272A83F8AC
:1010B00000131346F4D1002010BD03F00F03043BCE
:1010C000034419761346EBE700ED00E000E100E091
:1010D00030B50E4C416123688BB9206083600DE010
:1010E000891A9A681D4641616AB113465A698A4253
:1010F000F6D935B1A860521A83605A6130BD002517
:10110000F4E72060F7E798608260F7E73810002086
:1011100038B500F033FA0025084B094C1A682368EB
:10112000C31A2AB123B15169994203D3C91A516133
:10113000206038BD55615B1A9268F2E738100020D4
:101140003410002038B5134D2B685B6993B1124AF7
:10115000022014681C4400F023FA204600F04EFAE6
:1011600000230E492A680B70D088800709D5012317
:101170000B7038BD022000F013FA022000F074FA60
:10118000EEE79268002AF4D050690344012BEBD9B2
:10119000EFE700BF38100020341000206C10002052
:1011A00070B516469DF81420C0E903360271049A02
:1011B000BDF818300260002204460D468260C380EC
:1011C000EEB900F0DBF92844A0619DB12E4600F095
:1011D0009BFC0546FFF79CFF31462046FFF778FF52
:1011E000104B1B68A34201D1FFF7ACFF284600F06B
:1011F0008FFC02E0E36865617BB9002070BD00F000
:10120000BDF93044A061002DE0D1E3686561002B99
:10121000DDD0204621689847D9E7204621689847C5
:10122000EBE700BF3810002000220C490B687BB1AF
:1012300083420AD183687AB1936083681BB15A698B
:1012400041690A445A61002070471A469B68EEE7DC
:101250000028EFD0022070470B60EEE73810002026
:1012600070B500F058FC144E05463478FCB9134BA9
:101270001C60134B1C60134B1C8000F04DF90120C7
:1012800000F08EF900F0F8F90F4B0246186020B913
:10129000284600F046FC232070BD234640F2E7318B
:1012A0000A4800F057FA0A4B1860012333702846A9
:1012B00000F037FC0020EFE76D1000203810002010
:1012C00034100020681000203C10002018FCFFFFA4
:1012D0003010002038B50C460546A8B1A1B1002356
:1012E0000B7000F018FC0121084B1B6833B900F0AB
:1012F00018FC002038BD9D4204D121702278002ABC
:10130000F9D0F4E79B68F1E72220F3E738100020DA
:10131000F8B50C4B05461B680E4683420FD30024DC
:1013200040F2E7302146084B4FF47A721F680023E1
:10133000E5FB070100F00EFA30602046F8BD2120E1
:10134000FCE700BF301000203C100020F0B587B053
:101350001F4600230C46164605468DF8133050B341
:101360000DF11301FFF7B6FF9DF813302BBB20469C
:1013700005A9FFF7CDFFE0B9114BE8831B682846AC
:101380005C434FF47A73B4FBF3F203FB1244191B72
:1013900089B2994208BF0021BDF83430A983059A6B
:1013A00002939DF830301146CDE900733346FFF7C4
:1013B000F7FE07B0F0BD2220FBE70220F9E700BFEF
:1013C0003C1000202DE9F843C20704460BD54E4AD5
:1013D000138801339BB21380FFF79AFE4B4B1B68B7
:1013E0000BB1FFF7AFFEA30740F18B8000F093FB3A
:1013F0004FF0000805464646FFF78AFE434F3C681B
:101400000CB163698BB10022414B012E1A7003D1DC
:1014100018F0020F18BF1E70002C6ED0FFF792FE5E
:101420002846BDE8F84300F07CBB23465A693AB928
:101430001A792179914288BF1C469B68002BF5D10F
:10144000284600F06EFB2569DDB100F097F8A2692F
:10145000A0EB02084FEAE873A84573F1000311DB23
:1014600023691344A361E368B4F80680013613B11D
:1014700020462168984700F04EFB0546FFF748FEDE
:10148000BDE7A84600F047FB81462046FFF7CCFEAB
:10149000484600F046FB2369002BE4D0B5EB080575
:1014A0004FEAE87363EB4303012D73F1000304DAA1
:1014B00040F22B51174800F00EFBA38B33B1E28BA7
:1014C00013449BB2B3F57A7F0FD2E38300F023FB82
:1014D000804629462046FFF7FBFDA3692269404666
:1014E0001344A36100F01DFBBDE7A3F57A73E3830A
:1014F000A369013D013BA361E8E7022000F068F821
:101500008EE7BDE8F88300BF681000203810002087
:101510006B1000203E1E000013B5144B144C1A88AB
:101520009B7820460121ADF804208DF80630FFF7A6
:1015300081F901212046FFF799FA0024012301A82F
:101540008DF804308DF80640FFF74EFD094BDA693F
:1015500022F00702DA6107229A614FF080425C6054
:10156000054BC3F880211A6002B010BDA31E000015
:10157000801612000000084000E100E0064A074B18
:1015800050681B781169DBB2C90744BF506801334A
:1015900040EA0360704700BF000008406E10002062
:1015A00010F0020F084A00F0010308D0074908783C
:1015B00018B1042090610020087043F00403D16941
:1015C0000B43D361704700BF000008400F1000209C
:1015D000820744BF0121074A00F0010348BF117090
:1015E000054948BF43F00403CA6922EA0303CB61FB
:1015F000704700BF0F1000200000084038B50446B7
:1016000000F082FA0546FFF7B9FF154A0346126952
:1016100012F0040F134A06D11168091A032902D8DF
:101620001168814213D1E11A022998BFDC1C013CE8
:1016300014601168CB1AB3F1807F0DD211680120BC
:1016400021F07F41FFF7AAFC0220FFF7A9FF2846FF
:10165000BDE8384000F05CBA0220FFF7B9FFF6E7BA
:101660000000084040100020830742BF0422014BC5
:101670005A617047000008400148FFF7F9BA00BFFF
:1016800080161200F8B500F046FA1C4B06461D699C
:1016900015F0010405F0040705F0050506D1FFB9B2
:1016A0009D613046BDE8F84000F03BBA144A14781A
:1016B000137824060133DBB21370124B19681378C8
:1016C000A1EB0361B1F1807F05D20120FFF766FC39
:1016D0000220FFF765FF57B104F180735C425C4163
:1016E000064B44F002009D61FFF76CFED9E7034B07
:1016F000B4F17F4F9D61D4D10120F5E7000008408F
:101700006E100020401000200122014B1A7070471B
:101710006F10002007B5002301224FF4FA71CDE9C4
:1017200000320348034AFFF711FE03B05DF804FBE3
:10173000441000200917000010B5044C237823B191
:10174000034800F0CCF90023237010BD6F10002077
:10175000001C000053B94AB9002908BF00281CBF6B
:101760004FF0FF314FF0FF3000F06CB9ADF1080CD5
:101770006DE904CE00F006F8DDF804E0DDE90223AF
:1017800004B070472DE9F047089D0C46002B4ED160
:1017900096468E458446B2FA82F262D94AB1C2F1C7
:1017A0002003914020FA03F30EFA02FE194300FAD7
:1017B00002FC4FEA1E47B1FBF7F407FB14111FFAB6
:1017C0008EF64FEA1C4343EA014304FB06F19942BB
:1017D0000AD91EEB030304F1FF3080F01181994216
:1017E00040F20E81023C7344591AB1FBF7F007FB3B
:1017F000101100FB06F61FFA8CF343EA01439E42E8
:101800000AD91EEB030300F1FF3180F0FB809E42FA
:1018100040F2F8807344023800219B1B40EA0440E8
:101820001DB1D3400022C5E90032BDE8F0878B42EC
:1018300005D90DB1C5E9000100210846F5E7B3FA65
:1018400083F1002946D1A34202D39042C0F0F38035
:10185000861A64EB03030120002DE6D0C5E900637E
:10186000E3E7002A40F09080A1EB0E0401214FEA4B
:101870001E471FFA8EF6B4FBF7F007FB10444FEA41
:101880001C4343EA044306FB00F49C4208D91EEBC8
:10189000030300F1FF3802D29C4200F2C9804046A7
:1018A0001C1B1FFA8CF3B4FBF7FC07FB1C4406FB64
:1018B0000CF643EA04439E4208D91EEB03030CF1E5
:1018C000FF3402D29E4200F2AF80A4469B1B4CEA3A
:1018D0000040A5E7C1F120068B4022FA06FC4CEA45
:1018E000030C24FA06F74FEA1C49B7FBF9F81FFA74
:1018F0008CFE09FB187720FA06F38C4000FA01FAF7
:1019000008FB0EF01C43230C43EA0743984202FAFB
:1019100001F20AD91CEB030308F1FF3780F0828043
:1019200098427FD9A8F1020863441F1AB7FBF9F364
:1019300009FB137703FB0EFEA4B244EA0744A64555
:1019400008D91CEB040403F1FF3067D2A64565D922
:10195000023B644443EA0840A0FB0283A4EB0E046C
:101960009C42C6461F4651D34ED0002D67D0BAEBDD
:101970000E0364EB070424FA01F2CB40B4401C438D
:101980000021C5E9004250E70EFA02FEC2F1200331
:10199000D9404FEA1E4720FA03F300FA02FCB1FBDC
:1019A000F7F007FB101194401C431FFA8EF6230C2E
:1019B00043EA014300FB06F1994208D91EEB0303F9
:1019C00000F1FF382CD299422AD9023873445B1AAD
:1019D000B3FBF7F107FB1133A4B244EA034401FB64
:1019E00006F3A34208D91EEB040401F1FF3813D219
:1019F000A34211D902397444E41A41EA00413AE79A
:101A00000446F1E6084607E7C245AED2B8EB020E3F
:101A100063EB0C070138A8E74146EDE7034699E779
:101A20004046D4E7B84680E77344ACF1020C4DE77A
:101A30000238734434E70646234608460CE7294635
:101A4000F3E600BF704700BF08B5064B044613B16C
:101A50000021AFF30080044B1B6803B19847204678
:101A600000F03AF8000000006410002070B5002675
:101A70000C4D0D4C641BA410A64209D100F0A0F837
:101A800000260A4D0A4C641BA410A64205D170BD65
:101A900055F8043B98470136EEE755F8043B984764
:101AA0000136F2E710100020101000201010002066
:101AB00014100020FEF7EABBFFF7D2BB7047704757
:101AC0007047704770477047FEE74FF4004070471B
:101AD0004FF47A707047FEE7FEE709C818470369BC
:101AE00000681847034659789B7800780BB9FEF7D1
:101AF00089BCFEF7A5BC034659789B7800780BB9E2
:101B0000FEF79EBCFEF77EBCEFF3108072B6704706
:101B100000B962B67047EFF31180602383F3118838
:101B2000704780F31188704770B5054614460E461D
:101B3000FFF7EAFF2B685C4034405C402C60BDE856
:101B40007040FFF7E5BF08B5FEF774FBFFF7B2FF83
:101B5000FFF7B2FFFFF7B2FFBDE80840FFF7AFBFE6
:101B600008B5FFF7ADFFFFF7ACFFFFF7ABFFBDE830
:101B70000840FFF7A8BFFFF7CDBDFFF7DDBD08B5F3
:101B8000FFF7E1FFFFF7F7FFFFF7EAFFFFF7F5FFCA
:101B9000FAE703460244934200D1704703F8011B61
:101BA000F9E7000000000000000000000000000055
:101BB0000000000000000000000000000000000025
:101BC000F8B500BFF8BC08BC9E467047F8B500BF2A
:101BD000F8BC08BC9E4670470000000000000000F2
:101BE00000000000000000000000000000000000F5
:101BF00000000000000000000000000000000000E5
:101C00000C1000207D040000E51A0000F71A000007
:101C1000B1040000ED0400002F55736572732F6549
:101C20006976696E646E65736A652F53696D706C51
:101C3000696369747953747564696F2F53444B7386
:101C40002F6765636B6F5F73646B5F322F2F706CF0
:101C50006174666F726D2F656D6C69622F696E635A
:101C60002F656D5F6770696F2E680000FFFFFFFFD3
:101C7000FFFFFFFFFFFFFF1F2F55736572732F6577
:101C80006976696E646E65736A652F53696D706CF1
:101C9000696369747953747564696F2F53444B7326
:101CA0002F6765636B6F5F73646B5F322F2F706C90
:101CB0006174666F726D2F656D6C69622F696E63FA
:101CC0002F656D5F636D752E68002F557365727398
:101CD0002F656976696E646E65736A652F53696DE9
:101CE000706C696369747953747564696F2F5344B8
:101CF0004B732F6765636B6F5F73646B5F322F701D
:101D00006C6174666F726D2F656D6C69622F737292
:101D1000632F656D5F636D752E63000000028000A8
:101D20000800020020000001400004000100100033
:101D300009070301052F55736572732F656976696D
:101D40006E646E65736A652F53696D706C69636943
:101D5000747953747564696F2F53444B732F67659F
:101D6000636B6F5F73646B5F322F706C6174666F4F
:101D7000726D2F656D6C69622F7372632F656D5F75
:101D80006770696F2E630000FFFFFFFFFFFFFFFF1B
:101D9000FFFFFF1F2F55736572732F656976696E9C
:101DA000646E65736A652F53696D706C69636974DD
:101DB0007953747564696F2F53444B732F67656350
:101DC0006B6F5F73646B5F322F706C6174666F72E0
:101DD0006D2F656D6C69622F7372632F656D5F7215
:101DE00074632E63002F55736572732F656976696E
:101DF0006E646E65736A652F53696D706C69636993
:101E0000747953747564696F2F53444B732F6765EE
:101E1000636B6F5F73646B5F322F706C6174666F9E
:101E2000726D2F656D6C69622F7372632F656D5FC4
:101E300073797374656D2E630000000001012F55E6
:101E4000736572732F656976696E646E65736A6512
:101E50002F53696D706C6963697479537475646923
:101E60006F2F53444B732F6765636B6F5F73646BA6
:101E70005F322F706C6174666F726D2F736572764E
:101E80006963652F736C65657074696D65722F7316
:101E900072632F736C5F736C65657074696D6572C6
:081EA0002E63000100010000A7
:081EA800C0E2FF7F0100000011
:0C1EB000BC1E0000001000200600000016
:101EBC00809FD50000800000006CDC020002010154
:081ECC00450100001D010000AA
:04000003000002995E
:00000001FF
